{
  "contractName": "Hospital_Contract",
  "abi": [
    {
      "constant": true,
      "inputs": [
        {
          "name": "",
          "type": "address"
        }
      ],
      "name": "patients",
      "outputs": [
        {
          "name": "patient_address",
          "type": "address"
        },
        {
          "name": "name",
          "type": "string"
        },
        {
          "name": "phone_number",
          "type": "string"
        },
        {
          "name": "alloted_departments",
          "type": "string"
        },
        {
          "name": "alloted_docotors",
          "type": "address"
        }
      ],
      "payable": false,
      "stateMutability": "view",
      "type": "function"
    },
    {
      "constant": true,
      "inputs": [
        {
          "name": "",
          "type": "uint256"
        }
      ],
      "name": "hospital_list",
      "outputs": [
        {
          "name": "username",
          "type": "string"
        },
        {
          "name": "hospital_name",
          "type": "string"
        },
        {
          "name": "registraion_number",
          "type": "string"
        },
        {
          "name": "departments",
          "type": "string"
        },
        {
          "name": "hospital_address",
          "type": "address"
        },
        {
          "name": "license_number",
          "type": "string"
        }
      ],
      "payable": false,
      "stateMutability": "view",
      "type": "function"
    },
    {
      "constant": true,
      "inputs": [
        {
          "name": "",
          "type": "address"
        }
      ],
      "name": "blocks",
      "outputs": [
        {
          "name": "patient_address",
          "type": "address"
        },
        {
          "name": "CID_Key",
          "type": "string"
        },
        {
          "name": "patient_name",
          "type": "string"
        }
      ],
      "payable": false,
      "stateMutability": "view",
      "type": "function"
    },
    {
      "constant": true,
      "inputs": [
        {
          "name": "",
          "type": "uint256"
        }
      ],
      "name": "doctor_list",
      "outputs": [
        {
          "name": "username",
          "type": "string"
        },
        {
          "name": "name",
          "type": "string"
        },
        {
          "name": "department",
          "type": "string"
        },
        {
          "name": "id",
          "type": "string"
        },
        {
          "name": "hospital_address",
          "type": "address"
        }
      ],
      "payable": false,
      "stateMutability": "view",
      "type": "function"
    },
    {
      "constant": true,
      "inputs": [
        {
          "name": "",
          "type": "uint256"
        }
      ],
      "name": "doctor_address",
      "outputs": [
        {
          "name": "",
          "type": "address"
        }
      ],
      "payable": false,
      "stateMutability": "view",
      "type": "function"
    },
    {
      "constant": true,
      "inputs": [
        {
          "name": "",
          "type": "uint256"
        }
      ],
      "name": "hospital_addresses",
      "outputs": [
        {
          "name": "",
          "type": "address"
        }
      ],
      "payable": false,
      "stateMutability": "view",
      "type": "function"
    },
    {
      "constant": true,
      "inputs": [
        {
          "name": "",
          "type": "address"
        }
      ],
      "name": "doctors",
      "outputs": [
        {
          "name": "username",
          "type": "string"
        },
        {
          "name": "name",
          "type": "string"
        },
        {
          "name": "department",
          "type": "string"
        },
        {
          "name": "id",
          "type": "string"
        },
        {
          "name": "hospital_address",
          "type": "address"
        }
      ],
      "payable": false,
      "stateMutability": "view",
      "type": "function"
    },
    {
      "constant": true,
      "inputs": [
        {
          "name": "",
          "type": "uint256"
        }
      ],
      "name": "patients_list",
      "outputs": [
        {
          "name": "patient_address",
          "type": "address"
        },
        {
          "name": "name",
          "type": "string"
        },
        {
          "name": "phone_number",
          "type": "string"
        },
        {
          "name": "alloted_departments",
          "type": "string"
        },
        {
          "name": "alloted_docotors",
          "type": "address"
        }
      ],
      "payable": false,
      "stateMutability": "view",
      "type": "function"
    },
    {
      "constant": true,
      "inputs": [
        {
          "name": "",
          "type": "address"
        }
      ],
      "name": "isRegistered",
      "outputs": [
        {
          "name": "",
          "type": "bool"
        }
      ],
      "payable": false,
      "stateMutability": "view",
      "type": "function"
    },
    {
      "constant": true,
      "inputs": [
        {
          "name": "",
          "type": "uint256"
        }
      ],
      "name": "blocks_list",
      "outputs": [
        {
          "name": "patient_address",
          "type": "address"
        },
        {
          "name": "CID_Key",
          "type": "string"
        },
        {
          "name": "patient_name",
          "type": "string"
        }
      ],
      "payable": false,
      "stateMutability": "view",
      "type": "function"
    },
    {
      "anonymous": false,
      "inputs": [
        {
          "indexed": true,
          "name": "hospital_address",
          "type": "address"
        },
        {
          "indexed": false,
          "name": "username",
          "type": "string"
        },
        {
          "indexed": false,
          "name": "hospital_name",
          "type": "string"
        },
        {
          "indexed": false,
          "name": "registration_number",
          "type": "string"
        },
        {
          "indexed": false,
          "name": "departments",
          "type": "string"
        },
        {
          "indexed": false,
          "name": "license_number",
          "type": "string"
        }
      ],
      "name": "Hospital_Added",
      "type": "event"
    },
    {
      "anonymous": false,
      "inputs": [
        {
          "indexed": true,
          "name": "block_address",
          "type": "address"
        },
        {
          "indexed": false,
          "name": "CID_key",
          "type": "string"
        },
        {
          "indexed": false,
          "name": "patient_name",
          "type": "string"
        }
      ],
      "name": "CreateBlock",
      "type": "event"
    },
    {
      "anonymous": false,
      "inputs": [
        {
          "indexed": true,
          "name": "doctorAddress",
          "type": "address"
        },
        {
          "indexed": false,
          "name": "username",
          "type": "string"
        },
        {
          "indexed": false,
          "name": "name",
          "type": "string"
        },
        {
          "indexed": false,
          "name": "department",
          "type": "string"
        },
        {
          "indexed": false,
          "name": "id",
          "type": "string"
        },
        {
          "indexed": false,
          "name": "hospital_address",
          "type": "address"
        }
      ],
      "name": "DoctorAdded",
      "type": "event"
    },
    {
      "anonymous": false,
      "inputs": [
        {
          "indexed": true,
          "name": "patientAddress",
          "type": "address"
        },
        {
          "indexed": false,
          "name": "name",
          "type": "string"
        },
        {
          "indexed": false,
          "name": "phone_number",
          "type": "string"
        },
        {
          "indexed": false,
          "name": "alloted_departments",
          "type": "string"
        },
        {
          "indexed": false,
          "name": "alloted_doctors",
          "type": "address"
        }
      ],
      "name": "PatientsAdded",
      "type": "event"
    },
    {
      "constant": false,
      "inputs": [
        {
          "name": "_username",
          "type": "string"
        },
        {
          "name": "_hospital_name",
          "type": "string"
        },
        {
          "name": "_registration_number",
          "type": "string"
        },
        {
          "name": "_departments",
          "type": "string"
        },
        {
          "name": "_license_number",
          "type": "string"
        }
      ],
      "name": "Add_Hospital",
      "outputs": [
        {
          "name": "",
          "type": "address"
        }
      ],
      "payable": false,
      "stateMutability": "nonpayable",
      "type": "function"
    },
    {
      "constant": true,
      "inputs": [],
      "name": "get_hospital_address",
      "outputs": [
        {
          "components": [
            {
              "name": "username",
              "type": "string"
            },
            {
              "name": "hospital_name",
              "type": "string"
            },
            {
              "name": "registraion_number",
              "type": "string"
            },
            {
              "name": "departments",
              "type": "string"
            },
            {
              "name": "hospital_address",
              "type": "address"
            },
            {
              "name": "license_number",
              "type": "string"
            }
          ],
          "name": "",
          "type": "tuple[]"
        }
      ],
      "payable": false,
      "stateMutability": "view",
      "type": "function"
    },
    {
      "constant": true,
      "inputs": [],
      "name": "get_hospital_list",
      "outputs": [
        {
          "components": [
            {
              "name": "username",
              "type": "string"
            },
            {
              "name": "hospital_name",
              "type": "string"
            },
            {
              "name": "registraion_number",
              "type": "string"
            },
            {
              "name": "departments",
              "type": "string"
            },
            {
              "name": "hospital_address",
              "type": "address"
            },
            {
              "name": "license_number",
              "type": "string"
            }
          ],
          "name": "",
          "type": "tuple[]"
        }
      ],
      "payable": false,
      "stateMutability": "view",
      "type": "function"
    },
    {
      "constant": true,
      "inputs": [
        {
          "name": "hospitalAddress",
          "type": "address"
        }
      ],
      "name": "getHospital",
      "outputs": [
        {
          "name": "",
          "type": "string"
        },
        {
          "name": "",
          "type": "string"
        },
        {
          "name": "",
          "type": "string"
        },
        {
          "name": "",
          "type": "string"
        }
      ],
      "payable": false,
      "stateMutability": "view",
      "type": "function"
    },
    {
      "constant": true,
      "inputs": [
        {
          "name": "_hospital_addresses",
          "type": "address"
        }
      ],
      "name": "hospital_exist",
      "outputs": [
        {
          "name": "",
          "type": "bool"
        }
      ],
      "payable": false,
      "stateMutability": "view",
      "type": "function"
    },
    {
      "constant": true,
      "inputs": [
        {
          "name": "_hospital_address",
          "type": "address"
        }
      ],
      "name": "check_hospital_key",
      "outputs": [
        {
          "name": "",
          "type": "bool"
        }
      ],
      "payable": false,
      "stateMutability": "view",
      "type": "function"
    },
    {
      "constant": true,
      "inputs": [
        {
          "name": "_patient_name",
          "type": "string"
        }
      ],
      "name": "Patients_exist",
      "outputs": [
        {
          "name": "",
          "type": "bool"
        }
      ],
      "payable": false,
      "stateMutability": "view",
      "type": "function"
    },
    {
      "constant": false,
      "inputs": [
        {
          "name": "_patient_address",
          "type": "address"
        },
        {
          "name": "_CID_key",
          "type": "string"
        },
        {
          "name": "_patient_name",
          "type": "string"
        }
      ],
      "name": "createblock",
      "outputs": [],
      "payable": false,
      "stateMutability": "nonpayable",
      "type": "function"
    },
    {
      "constant": true,
      "inputs": [
        {
          "name": "_patient_address",
          "type": "address"
        }
      ],
      "name": "get_CID_key",
      "outputs": [
        {
          "name": "",
          "type": "string"
        }
      ],
      "payable": false,
      "stateMutability": "view",
      "type": "function"
    },
    {
      "constant": false,
      "inputs": [
        {
          "name": "_username",
          "type": "string"
        },
        {
          "name": "_name",
          "type": "string"
        },
        {
          "name": "_department",
          "type": "string"
        },
        {
          "name": "_id",
          "type": "string"
        },
        {
          "name": "_hospital_address",
          "type": "address"
        }
      ],
      "name": "addDoctor",
      "outputs": [],
      "payable": false,
      "stateMutability": "nonpayable",
      "type": "function"
    },
    {
      "constant": true,
      "inputs": [
        {
          "name": "_doctor_address",
          "type": "address"
        }
      ],
      "name": "validate_doctor",
      "outputs": [
        {
          "name": "",
          "type": "bool"
        }
      ],
      "payable": false,
      "stateMutability": "view",
      "type": "function"
    },
    {
      "constant": true,
      "inputs": [],
      "name": "get_all_doctor",
      "outputs": [
        {
          "components": [
            {
              "name": "username",
              "type": "string"
            },
            {
              "name": "name",
              "type": "string"
            },
            {
              "name": "department",
              "type": "string"
            },
            {
              "name": "id",
              "type": "string"
            },
            {
              "name": "hospital_address",
              "type": "address"
            }
          ],
          "name": "",
          "type": "tuple[]"
        }
      ],
      "payable": false,
      "stateMutability": "view",
      "type": "function"
    },
    {
      "constant": false,
      "inputs": [
        {
          "name": "_name",
          "type": "string"
        },
        {
          "name": "_phone_number",
          "type": "string"
        },
        {
          "name": "_alloted_departments",
          "type": "string"
        },
        {
          "name": "_alloted_doctors",
          "type": "address"
        }
      ],
      "name": "Add_Patients",
      "outputs": [],
      "payable": false,
      "stateMutability": "nonpayable",
      "type": "function"
    },
    {
      "constant": true,
      "inputs": [
        {
          "name": "name",
          "type": "string"
        }
      ],
      "name": "get_patient_address",
      "outputs": [
        {
          "name": "",
          "type": "address"
        }
      ],
      "payable": false,
      "stateMutability": "view",
      "type": "function"
    },
    {
      "constant": true,
      "inputs": [],
      "name": "get_every_patient",
      "outputs": [
        {
          "components": [
            {
              "name": "patient_address",
              "type": "address"
            },
            {
              "name": "name",
              "type": "string"
            },
            {
              "name": "phone_number",
              "type": "string"
            },
            {
              "name": "alloted_departments",
              "type": "string"
            },
            {
              "name": "alloted_docotors",
              "type": "address"
            }
          ],
          "name": "",
          "type": "tuple[]"
        }
      ],
      "payable": false,
      "stateMutability": "view",
      "type": "function"
    }
  ],
  "bytecode": "0x608060405234801561001057600080fd5b50614fd1806100206000396000f3fe608060405260043610610143576000357c01000000000000000000000000000000000000000000000000000000009004806307f6e02d146101485780630869cfbc146101855780631b31b41f146101c65780631c8852aa146101f15780631db756131461021a5780632a8d8b9c146102455780633074121214610270578063315a50e0146102b25780634579985a146102ef5780634ed65f4c1461032e5780635e7bab6d1461036f5780636a3ce54f146103ac5780637d420eaa146103e957806383cd2f7914610426578063a9583c2214610451578063aaf71be714610492578063b20a8033146104cf578063b4505b2c146104f8578063b58ee13314610539578063c3c5a54714610576578063c49b09b5146105b3578063ca442fb7146105f3578063dcf286d71461061c578063edcc00e814610659578063fd68019f14610698575b600080fd5b34801561015457600080fd5b5061016f600480360361016a9190810190614170565b6106d5565b60405161017c9190614aa0565b60405180910390f35b34801561019157600080fd5b506101ac60048036036101a79190810190614170565b610912565b6040516101bd9594939291906149b7565b60405180910390f35b3480156101d257600080fd5b506101db610b50565b6040516101e89190614a41565b60405180910390f35b3480156101fd57600080fd5b5061021860048036036102139190810190614259565b610f30565b005b34801561022657600080fd5b5061022f61126e565b60405161023c9190614a63565b60405180910390f35b34801561025157600080fd5b5061025a611574565b6040516102679190614a41565b60405180910390f35b34801561027c57600080fd5b50610297600480360361029291908101906144ca565b611968565b6040516102a996959493929190614d08565b60405180910390f35b3480156102be57600080fd5b506102d960048036036102d49190810190614170565b611ccb565b6040516102e69190614a85565b60405180910390f35b3480156102fb57600080fd5b5061031660048036036103119190810190614170565b611d85565b60405161032593929190614972565b60405180910390f35b34801561033a57600080fd5b50610355600480360361035091908101906144ca565b611eff565b604051610366959493929190614c99565b60405180910390f35b34801561037b57600080fd5b5061039660048036036103919190810190614170565b6121c4565b6040516103a39190614a85565b60405180910390f35b3480156103b857600080fd5b506103d360048036036103ce91908101906144ca565b612268565b6040516103e09190614957565b60405180910390f35b3480156103f557600080fd5b50610410600480360361040b91908101906144ca565b6122a6565b60405161041d9190614957565b60405180910390f35b34801561043257600080fd5b5061043b6122e4565b6040516104489190614a1f565b60405180910390f35b34801561045d57600080fd5b5061047860048036036104739190810190614170565b612622565b604051610489959493929190614c99565b60405180910390f35b34801561049e57600080fd5b506104b960048036036104b491908101906143db565b6128d8565b6040516104c69190614957565b60405180910390f35b3480156104db57600080fd5b506104f660048036036104f19190810190614304565b612ce7565b005b34801561050457600080fd5b5061051f600480360361051a91908101906144ca565b612fa5565b6040516105309594939291906149b7565b60405180910390f35b34801561054557600080fd5b50610560600480360361055b9190810190614170565b6131f2565b60405161056d9190614a85565b60405180910390f35b34801561058257600080fd5b5061059d60048036036105989190810190614170565b613296565b6040516105aa9190614a85565b60405180910390f35b3480156105bf57600080fd5b506105da60048036036105d59190810190614170565b6132b6565b6040516105ea9493929190614b53565b60405180910390f35b3480156105ff57600080fd5b5061061a60048036036106159190810190614199565b61358e565b005b34801561062857600080fd5b50610643600480360361063e9190810190614218565b613801565b6040516106509190614957565b60405180910390f35b34801561066557600080fd5b50610680600480360361067b91908101906144ca565b613b18565b60405161068f93929190614972565b60405180910390f35b3480156106a457600080fd5b506106bf60048036036106ba9190810190614218565b613ca1565b6040516106cc9190614a85565b60405180910390f35b606060008090505b60058054905081101561090b576106f2613fb9565b60058281548110151561070157fe5b9060005260206000209060030201606060405190810160405290816000820160009054906101000a900473ffffffffffffffffffffffffffffffffffffffff1673ffffffffffffffffffffffffffffffffffffffff1673ffffffffffffffffffffffffffffffffffffffff168152602001600182018054600181600116156101000203166002900480601f01602080910402602001604051908101604052809291908181526020018280546001816001161561010002031660029004801561080a5780601f106107df5761010080835404028352916020019161080a565b820191906000526020600020905b8154815290600101906020018083116107ed57829003601f168201915b50505050508152602001600282018054600181600116156101000203166002900480601f0160208091040260200160405190810160405280929190818152602001828054600181600116156101000203166002900480156108ac5780601f10610881576101008083540402835291602001916108ac565b820191906000526020600020905b81548152906001019060200180831161088f57829003601f168201915b50505050508152505090508373ffffffffffffffffffffffffffffffffffffffff16816000015173ffffffffffffffffffffffffffffffffffffffff1614156108fd5780602001519250505061090d565b5080806001019150506106dd565b505b919050565b60096020528060005260406000206000915090508060000160009054906101000a900473ffffffffffffffffffffffffffffffffffffffff1690806001018054600181600116156101000203166002900480601f0160208091040260200160405190810160405280929190818152602001828054600181600116156101000203166002900480156109e45780601f106109b9576101008083540402835291602001916109e4565b820191906000526020600020905b8154815290600101906020018083116109c757829003601f168201915b505050505090806002018054600181600116156101000203166002900480601f016020809104026020016040519081016040528092919081815260200182805460018160011615610100020316600290048015610a825780601f10610a5757610100808354040283529160200191610a82565b820191906000526020600020905b815481529060010190602001808311610a6557829003601f168201915b505050505090806003018054600181600116156101000203166002900480601f016020809104026020016040519081016040528092919081815260200182805460018160011615610100020316600290048015610b205780601f10610af557610100808354040283529160200191610b20565b820191906000526020600020905b815481529060010190602001808311610b0357829003601f168201915b5050505050908060040160009054906101000a900473ffffffffffffffffffffffffffffffffffffffff16905085565b60606003805480602002602001604051908101604052809291908181526020016000905b82821015610f27578382906000526020600020906006020160c06040519081016040529081600082018054600181600116156101000203166002900480601f016020809104026020016040519081016040528092919081815260200182805460018160011615610100020316600290048015610c315780601f10610c0657610100808354040283529160200191610c31565b820191906000526020600020905b815481529060010190602001808311610c1457829003601f168201915b50505050508152602001600182018054600181600116156101000203166002900480601f016020809104026020016040519081016040528092919081815260200182805460018160011615610100020316600290048015610cd35780601f10610ca857610100808354040283529160200191610cd3565b820191906000526020600020905b815481529060010190602001808311610cb657829003601f168201915b50505050508152602001600282018054600181600116156101000203166002900480601f016020809104026020016040519081016040528092919081815260200182805460018160011615610100020316600290048015610d755780601f10610d4a57610100808354040283529160200191610d75565b820191906000526020600020905b815481529060010190602001808311610d5857829003601f168201915b50505050508152602001600382018054600181600116156101000203166002900480601f016020809104026020016040519081016040528092919081815260200182805460018160011615610100020316600290048015610e175780601f10610dec57610100808354040283529160200191610e17565b820191906000526020600020905b815481529060010190602001808311610dfa57829003601f168201915b505050505081526020016004820160009054906101000a900473ffffffffffffffffffffffffffffffffffffffff1673ffffffffffffffffffffffffffffffffffffffff1673ffffffffffffffffffffffffffffffffffffffff168152602001600582018054600181600116156101000203166002900480601f016020809104026020016040519081016040528092919081815260200182805460018160011615610100020316600290048015610f0f5780601f10610ee457610100808354040283529160200191610f0f565b820191906000526020600020905b815481529060010190602001808311610ef257829003601f168201915b50505050508152505081526020019060010190610b74565b50505050905090565b60a0604051908101604052803373ffffffffffffffffffffffffffffffffffffffff1681526020018581526020018481526020018381526020018273ffffffffffffffffffffffffffffffffffffffff16815250600960003373ffffffffffffffffffffffffffffffffffffffff1673ffffffffffffffffffffffffffffffffffffffff16815260200190815260200160002060008201518160000160006101000a81548173ffffffffffffffffffffffffffffffffffffffff021916908373ffffffffffffffffffffffffffffffffffffffff1602179055506020820151816001019080519060200190611026929190613ff1565b506040820151816002019080519060200190611043929190613ff1565b506060820151816003019080519060200190611060929190613ff1565b5060808201518160040160006101000a81548173ffffffffffffffffffffffffffffffffffffffff021916908373ffffffffffffffffffffffffffffffffffffffff1602179055509050503373ffffffffffffffffffffffffffffffffffffffff167f152bca164195211daf0a949e24008cbf7451fb455f10ab1c7a7621b34ab204ed858585856040516110f79493929190614af9565b60405180910390a2600a60a0604051908101604052803373ffffffffffffffffffffffffffffffffffffffff1681526020018681526020018581526020018481526020018373ffffffffffffffffffffffffffffffffffffffff168152509080600181540180825580915050906001820390600052602060002090600502016000909192909190915060008201518160000160006101000a81548173ffffffffffffffffffffffffffffffffffffffff021916908373ffffffffffffffffffffffffffffffffffffffff16021790555060208201518160010190805190602001906111e3929190613ff1565b506040820151816002019080519060200190611200929190613ff1565b50606082015181600301908051906020019061121d929190613ff1565b5060808201518160040160006101000a81548173ffffffffffffffffffffffffffffffffffffffff021916908373ffffffffffffffffffffffffffffffffffffffff16021790555050505050505050565b60606000600a8054905011151561128457600080fd5b600a805480602002602001604051908101604052809291908181526020016000905b8282101561156b578382906000526020600020906005020160a060405190810160405290816000820160009054906101000a900473ffffffffffffffffffffffffffffffffffffffff1673ffffffffffffffffffffffffffffffffffffffff1673ffffffffffffffffffffffffffffffffffffffff168152602001600182018054600181600116156101000203166002900480601f0160208091040260200160405190810160405280929190818152602001828054600181600116156101000203166002900480156113b95780601f1061138e576101008083540402835291602001916113b9565b820191906000526020600020905b81548152906001019060200180831161139c57829003601f168201915b50505050508152602001600282018054600181600116156101000203166002900480601f01602080910402602001604051908101604052809291908181526020018280546001816001161561010002031660029004801561145b5780601f106114305761010080835404028352916020019161145b565b820191906000526020600020905b81548152906001019060200180831161143e57829003601f168201915b50505050508152602001600382018054600181600116156101000203166002900480601f0160208091040260200160405190810160405280929190818152602001828054600181600116156101000203166002900480156114fd5780601f106114d2576101008083540402835291602001916114fd565b820191906000526020600020905b8154815290600101906020018083116114e057829003601f168201915b505050505081526020016004820160009054906101000a900473ffffffffffffffffffffffffffffffffffffffff1673ffffffffffffffffffffffffffffffffffffffff1673ffffffffffffffffffffffffffffffffffffffff1681525050815260200190600101906112a6565b50505050905090565b6060600060038054905011151561158a57600080fd5b6003805480602002602001604051908101604052809291908181526020016000905b8282101561195f578382906000526020600020906006020160c06040519081016040529081600082018054600181600116156101000203166002900480601f0160208091040260200160405190810160405280929190818152602001828054600181600116156101000203166002900480156116695780601f1061163e57610100808354040283529160200191611669565b820191906000526020600020905b81548152906001019060200180831161164c57829003601f168201915b50505050508152602001600182018054600181600116156101000203166002900480601f01602080910402602001604051908101604052809291908181526020018280546001816001161561010002031660029004801561170b5780601f106116e05761010080835404028352916020019161170b565b820191906000526020600020905b8154815290600101906020018083116116ee57829003601f168201915b50505050508152602001600282018054600181600116156101000203166002900480601f0160208091040260200160405190810160405280929190818152602001828054600181600116156101000203166002900480156117ad5780601f10611782576101008083540402835291602001916117ad565b820191906000526020600020905b81548152906001019060200180831161179057829003601f168201915b50505050508152602001600382018054600181600116156101000203166002900480601f01602080910402602001604051908101604052809291908181526020018280546001816001161561010002031660029004801561184f5780601f106118245761010080835404028352916020019161184f565b820191906000526020600020905b81548152906001019060200180831161183257829003601f168201915b505050505081526020016004820160009054906101000a900473ffffffffffffffffffffffffffffffffffffffff1673ffffffffffffffffffffffffffffffffffffffff1673ffffffffffffffffffffffffffffffffffffffff168152602001600582018054600181600116156101000203166002900480601f0160208091040260200160405190810160405280929190818152602001828054600181600116156101000203166002900480156119475780601f1061191c57610100808354040283529160200191611947565b820191906000526020600020905b81548152906001019060200180831161192a57829003601f168201915b505050505081525050815260200190600101906115ac565b50505050905090565b60038181548110151561197757fe5b9060005260206000209060060201600091509050806000018054600181600116156101000203166002900480601f016020809104026020016040519081016040528092919081815260200182805460018160011615610100020316600290048015611a235780601f106119f857610100808354040283529160200191611a23565b820191906000526020600020905b815481529060010190602001808311611a0657829003601f168201915b505050505090806001018054600181600116156101000203166002900480601f016020809104026020016040519081016040528092919081815260200182805460018160011615610100020316600290048015611ac15780601f10611a9657610100808354040283529160200191611ac1565b820191906000526020600020905b815481529060010190602001808311611aa457829003601f168201915b505050505090806002018054600181600116156101000203166002900480601f016020809104026020016040519081016040528092919081815260200182805460018160011615610100020316600290048015611b5f5780601f10611b3457610100808354040283529160200191611b5f565b820191906000526020600020905b815481529060010190602001808311611b4257829003601f168201915b505050505090806003018054600181600116156101000203166002900480601f016020809104026020016040519081016040528092919081815260200182805460018160011615610100020316600290048015611bfd5780601f10611bd257610100808354040283529160200191611bfd565b820191906000526020600020905b815481529060010190602001808311611be057829003601f168201915b5050505050908060040160009054906101000a900473ffffffffffffffffffffffffffffffffffffffff1690806005018054600181600116156101000203166002900480601f016020809104026020016040519081016040528092919081815260200182805460018160011615610100020316600290048015611cc15780601f10611c9657610100808354040283529160200191611cc1565b820191906000526020600020905b815481529060010190602001808311611ca457829003601f168201915b5050505050905086565b6000806002805490501415611ce35760019050611d80565b60008090505b600280549050811015611d7a578273ffffffffffffffffffffffffffffffffffffffff16600282815481101515611d1c57fe5b9060005260206000200160009054906101000a900473ffffffffffffffffffffffffffffffffffffffff1673ffffffffffffffffffffffffffffffffffffffff161415611d6d576000915050611d80565b8080600101915050611ce9565b50600190505b919050565b60046020528060005260406000206000915090508060000160009054906101000a900473ffffffffffffffffffffffffffffffffffffffff1690806001018054600181600116156101000203166002900480601f016020809104026020016040519081016040528092919081815260200182805460018160011615610100020316600290048015611e575780601f10611e2c57610100808354040283529160200191611e57565b820191906000526020600020905b815481529060010190602001808311611e3a57829003601f168201915b505050505090806002018054600181600116156101000203166002900480601f016020809104026020016040519081016040528092919081815260200182805460018160011615610100020316600290048015611ef55780601f10611eca57610100808354040283529160200191611ef5565b820191906000526020600020905b815481529060010190602001808311611ed857829003601f168201915b5050505050905083565b600881815481101515611f0e57fe5b9060005260206000209060050201600091509050806000018054600181600116156101000203166002900480601f016020809104026020016040519081016040528092919081815260200182805460018160011615610100020316600290048015611fba5780601f10611f8f57610100808354040283529160200191611fba565b820191906000526020600020905b815481529060010190602001808311611f9d57829003601f168201915b505050505090806001018054600181600116156101000203166002900480601f0160208091040260200160405190810160405280929190818152602001828054600181600116156101000203166002900480156120585780601f1061202d57610100808354040283529160200191612058565b820191906000526020600020905b81548152906001019060200180831161203b57829003601f168201915b505050505090806002018054600181600116156101000203166002900480601f0160208091040260200160405190810160405280929190818152602001828054600181600116156101000203166002900480156120f65780601f106120cb576101008083540402835291602001916120f6565b820191906000526020600020905b8154815290600101906020018083116120d957829003601f168201915b505050505090806003018054600181600116156101000203166002900480601f0160208091040260200160405190810160405280929190818152602001828054600181600116156101000203166002900480156121945780601f1061216957610100808354040283529160200191612194565b820191906000526020600020905b81548152906001019060200180831161217757829003601f168201915b5050505050908060040160009054906101000a900473ffffffffffffffffffffffffffffffffffffffff16905085565b600080600090505b60028054905081101561225d578273ffffffffffffffffffffffffffffffffffffffff166002828154811015156121ff57fe5b9060005260206000200160009054906101000a900473ffffffffffffffffffffffffffffffffffffffff1673ffffffffffffffffffffffffffffffffffffffff161415612250576001915050612263565b80806001019150506121cc565b50600090505b919050565b60078181548110151561227757fe5b906000526020600020016000915054906101000a900473ffffffffffffffffffffffffffffffffffffffff1681565b6002818154811015156122b557fe5b906000526020600020016000915054906101000a900473ffffffffffffffffffffffffffffffffffffffff1681565b60606008805480602002602001604051908101604052809291908181526020016000905b82821015612619578382906000526020600020906005020160a06040519081016040529081600082018054600181600116156101000203166002900480601f0160208091040260200160405190810160405280929190818152602001828054600181600116156101000203166002900480156123c55780601f1061239a576101008083540402835291602001916123c5565b820191906000526020600020905b8154815290600101906020018083116123a857829003601f168201915b50505050508152602001600182018054600181600116156101000203166002900480601f0160208091040260200160405190810160405280929190818152602001828054600181600116156101000203166002900480156124675780601f1061243c57610100808354040283529160200191612467565b820191906000526020600020905b81548152906001019060200180831161244a57829003601f168201915b50505050508152602001600282018054600181600116156101000203166002900480601f0160208091040260200160405190810160405280929190818152602001828054600181600116156101000203166002900480156125095780601f106124de57610100808354040283529160200191612509565b820191906000526020600020905b8154815290600101906020018083116124ec57829003601f168201915b50505050508152602001600382018054600181600116156101000203166002900480601f0160208091040260200160405190810160405280929190818152602001828054600181600116156101000203166002900480156125ab5780601f10612580576101008083540402835291602001916125ab565b820191906000526020600020905b81548152906001019060200180831161258e57829003601f168201915b505050505081526020016004820160009054906101000a900473ffffffffffffffffffffffffffffffffffffffff1673ffffffffffffffffffffffffffffffffffffffff1673ffffffffffffffffffffffffffffffffffffffff168152505081526020019060010190612308565b50505050905090565b6006602052806000526040600020600091509050806000018054600181600116156101000203166002900480601f0160208091040260200160405190810160405280929190818152602001828054600181600116156101000203166002900480156126ce5780601f106126a3576101008083540402835291602001916126ce565b820191906000526020600020905b8154815290600101906020018083116126b157829003601f168201915b505050505090806001018054600181600116156101000203166002900480601f01602080910402602001604051908101604052809291908181526020018280546001816001161561010002031660029004801561276c5780601f106127415761010080835404028352916020019161276c565b820191906000526020600020905b81548152906001019060200180831161274f57829003601f168201915b505050505090806002018054600181600116156101000203166002900480601f01602080910402602001604051908101604052809291908181526020018280546001816001161561010002031660029004801561280a5780601f106127df5761010080835404028352916020019161280a565b820191906000526020600020905b8154815290600101906020018083116127ed57829003601f168201915b505050505090806003018054600181600116156101000203166002900480601f0160208091040260200160405190810160405280929190818152602001828054600181600116156101000203166002900480156128a85780601f1061287d576101008083540402835291602001916128a8565b820191906000526020600020905b81548152906001019060200180831161288b57829003601f168201915b5050505050908060040160009054906101000a900473ffffffffffffffffffffffffffffffffffffffff16905085565b600080855111151561291f576040517f08c379a000000000000000000000000000000000000000000000000000000000815260040161291690614dac565b60405180910390fd5b60c0604051908101604052808781526020018681526020018581526020018481526020013373ffffffffffffffffffffffffffffffffffffffff168152602001838152506000803373ffffffffffffffffffffffffffffffffffffffff1673ffffffffffffffffffffffffffffffffffffffff16815260200190815260200160002060008201518160000190805190602001906129bd929190613ff1565b5060208201518160010190805190602001906129da929190613ff1565b5060408201518160020190805190602001906129f7929190613ff1565b506060820151816003019080519060200190612a14929190613ff1565b5060808201518160040160006101000a81548173ffffffffffffffffffffffffffffffffffffffff021916908373ffffffffffffffffffffffffffffffffffffffff16021790555060a0820151816005019080519060200190612a78929190613ff1565b509050503373ffffffffffffffffffffffffffffffffffffffff167f63101af8f688d701cee672c98c24e2f0045df2cf2f9d0d60e793835d31041c8e8787878787604051612aca959493929190614c23565b60405180910390a260018060003373ffffffffffffffffffffffffffffffffffffffff1673ffffffffffffffffffffffffffffffffffffffff16815260200190815260200160002060006101000a81548160ff02191690831515021790555060023390806001815401808255809150509060018203906000526020600020016000909192909190916101000a81548173ffffffffffffffffffffffffffffffffffffffff021916908373ffffffffffffffffffffffffffffffffffffffff16021790555050600360c0604051908101604052808881526020018781526020018681526020018581526020013373ffffffffffffffffffffffffffffffffffffffff16815260200184815250908060018154018082558091505090600182039060005260206000209060060201600090919290919091506000820151816000019080519060200190612c1c929190613ff1565b506020820151816001019080519060200190612c39929190613ff1565b506040820151816002019080519060200190612c56929190613ff1565b506060820151816003019080519060200190612c73929190613ff1565b5060808201518160040160006101000a81548173ffffffffffffffffffffffffffffffffffffffff021916908373ffffffffffffffffffffffffffffffffffffffff16021790555060a0820151816005019080519060200190612cd7929190613ff1565b5050505033905095945050505050565b60008551111515612d2d576040517f08c379a0000000000000000000000000000000000000000000000000000000008152600401612d2490614dcc565b60405180910390fd5b60008451111515612d73576040517f08c379a0000000000000000000000000000000000000000000000000000000008152600401612d6a90614dac565b60405180910390fd5b60008251111515612db9576040517f08c379a0000000000000000000000000000000000000000000000000000000008152600401612db090614d8c565b60405180910390fd5b600860a0604051908101604052808781526020018681526020018581526020018481526020018373ffffffffffffffffffffffffffffffffffffffff16815250908060018154018082558091505090600182039060005260206000209060050201600090919290919091506000820151816000019080519060200190612e40929190613ff1565b506020820151816001019080519060200190612e5d929190613ff1565b506040820151816002019080519060200190612e7a929190613ff1565b506060820151816003019080519060200190612e97929190613ff1565b5060808201518160040160006101000a81548173ffffffffffffffffffffffffffffffffffffffff021916908373ffffffffffffffffffffffffffffffffffffffff1602179055505050503373ffffffffffffffffffffffffffffffffffffffff167f29133b6c64f88dfd4d3401313414329ab88f332b69cb40da4789c7bedd65df048686868686604051612f30959493929190614bb4565b60405180910390a260073390806001815401808255809150509060018203906000526020600020016000909192909190916101000a81548173ffffffffffffffffffffffffffffffffffffffff021916908373ffffffffffffffffffffffffffffffffffffffff160217905550505050505050565b600a81815481101515612fb457fe5b90600052602060002090600502016000915090508060000160009054906101000a900473ffffffffffffffffffffffffffffffffffffffff1690806001018054600181600116156101000203166002900480601f0160208091040260200160405190810160405280929190818152602001828054600181600116156101000203166002900480156130865780601f1061305b57610100808354040283529160200191613086565b820191906000526020600020905b81548152906001019060200180831161306957829003601f168201915b505050505090806002018054600181600116156101000203166002900480601f0160208091040260200160405190810160405280929190818152602001828054600181600116156101000203166002900480156131245780601f106130f957610100808354040283529160200191613124565b820191906000526020600020905b81548152906001019060200180831161310757829003601f168201915b505050505090806003018054600181600116156101000203166002900480601f0160208091040260200160405190810160405280929190818152602001828054600181600116156101000203166002900480156131c25780601f10613197576101008083540402835291602001916131c2565b820191906000526020600020905b8154815290600101906020018083116131a557829003601f168201915b5050505050908060040160009054906101000a900473ffffffffffffffffffffffffffffffffffffffff16905085565b600080600090505b60078054905081101561328b578273ffffffffffffffffffffffffffffffffffffffff1660078281548110151561322d57fe5b9060005260206000200160009054906101000a900473ffffffffffffffffffffffffffffffffffffffff1673ffffffffffffffffffffffffffffffffffffffff16141561327e576001915050613291565b80806001019150506131fa565b50600090505b919050565b60016020528060005260406000206000915054906101000a900460ff1681565b60608060608060008060008773ffffffffffffffffffffffffffffffffffffffff1673ffffffffffffffffffffffffffffffffffffffff168152602001908152602001600020905080600101816002018260030183600501838054600181600116156101000203166002900480601f0160208091040260200160405190810160405280929190818152602001828054600181600116156101000203166002900480156133a35780601f10613378576101008083540402835291602001916133a3565b820191906000526020600020905b81548152906001019060200180831161338657829003601f168201915b50505050509350828054600181600116156101000203166002900480601f01602080910402602001604051908101604052809291908181526020018280546001816001161561010002031660029004801561343f5780601f106134145761010080835404028352916020019161343f565b820191906000526020600020905b81548152906001019060200180831161342257829003601f168201915b50505050509250818054600181600116156101000203166002900480601f0160208091040260200160405190810160405280929190818152602001828054600181600116156101000203166002900480156134db5780601f106134b0576101008083540402835291602001916134db565b820191906000526020600020905b8154815290600101906020018083116134be57829003601f168201915b50505050509150808054600181600116156101000203166002900480601f0160208091040260200160405190810160405280929190818152602001828054600181600116156101000203166002900480156135775780601f1061354c57610100808354040283529160200191613577565b820191906000526020600020905b81548152906001019060200180831161355a57829003601f168201915b505050505090509450945094509450509193509193565b600082511115156135d4576040517f08c379a00000000000000000000000000000000000000000000000000000000081526004016135cb90614dec565b60405180910390fd5b6060604051908101604052808473ffffffffffffffffffffffffffffffffffffffff16815260200183815260200182815250600460003373ffffffffffffffffffffffffffffffffffffffff1673ffffffffffffffffffffffffffffffffffffffff16815260200190815260200160002060008201518160000160006101000a81548173ffffffffffffffffffffffffffffffffffffffff021916908373ffffffffffffffffffffffffffffffffffffffff16021790555060208201518160010190805190602001906136a8929190613ff1565b5060408201518160020190805190602001906136c5929190613ff1565b509050508273ffffffffffffffffffffffffffffffffffffffff167f313d9110bf9a40eb03b31455ce8aef49ce34bb565bf3728a5026bd04e2ee8b0c8383604051613711929190614ac2565b60405180910390a260056060604051908101604052808573ffffffffffffffffffffffffffffffffffffffff168152602001848152602001838152509080600181540180825580915050906001820390600052602060002090600302016000909192909190915060008201518160000160006101000a81548173ffffffffffffffffffffffffffffffffffffffff021916908373ffffffffffffffffffffffffffffffffffffffff16021790555060208201518160010190805190602001906137db929190613ff1565b5060408201518160020190805190602001906137f8929190613ff1565b50505050505050565b600080600090505b600a80549050811015613b115761381e614071565b600a8281548110151561382d57fe5b906000526020600020906005020160a060405190810160405290816000820160009054906101000a900473ffffffffffffffffffffffffffffffffffffffff1673ffffffffffffffffffffffffffffffffffffffff1673ffffffffffffffffffffffffffffffffffffffff168152602001600182018054600181600116156101000203166002900480601f0160208091040260200160405190810160405280929190818152602001828054600181600116156101000203166002900480156139365780601f1061390b57610100808354040283529160200191613936565b820191906000526020600020905b81548152906001019060200180831161391957829003601f168201915b50505050508152602001600282018054600181600116156101000203166002900480601f0160208091040260200160405190810160405280929190818152602001828054600181600116156101000203166002900480156139d85780601f106139ad576101008083540402835291602001916139d8565b820191906000526020600020905b8154815290600101906020018083116139bb57829003601f168201915b50505050508152602001600382018054600181600116156101000203166002900480601f016020809104026020016040519081016040528092919081815260200182805460018160011615610100020316600290048015613a7a5780601f10613a4f57610100808354040283529160200191613a7a565b820191906000526020600020905b815481529060010190602001808311613a5d57829003601f168201915b505050505081526020016004820160009054906101000a900473ffffffffffffffffffffffffffffffffffffffff1673ffffffffffffffffffffffffffffffffffffffff1673ffffffffffffffffffffffffffffffffffffffff1681525050905083805190602001208160200151805190602001201415613b0357806000015192505050613b13565b508080600101915050613809565b505b919050565b600581815481101515613b2757fe5b90600052602060002090600302016000915090508060000160009054906101000a900473ffffffffffffffffffffffffffffffffffffffff1690806001018054600181600116156101000203166002900480601f016020809104026020016040519081016040528092919081815260200182805460018160011615610100020316600290048015613bf95780601f10613bce57610100808354040283529160200191613bf9565b820191906000526020600020905b815481529060010190602001808311613bdc57829003601f168201915b505050505090806002018054600181600116156101000203166002900480601f016020809104026020016040519081016040528092919081815260200182805460018160011615610100020316600290048015613c975780601f10613c6c57610100808354040283529160200191613c97565b820191906000526020600020905b815481529060010190602001808311613c7a57829003601f168201915b5050505050905083565b600080600090505b600a80549050811015613fae57613cbe614071565b600a82815481101515613ccd57fe5b906000526020600020906005020160a060405190810160405290816000820160009054906101000a900473ffffffffffffffffffffffffffffffffffffffff1673ffffffffffffffffffffffffffffffffffffffff1673ffffffffffffffffffffffffffffffffffffffff168152602001600182018054600181600116156101000203166002900480601f016020809104026020016040519081016040528092919081815260200182805460018160011615610100020316600290048015613dd65780601f10613dab57610100808354040283529160200191613dd6565b820191906000526020600020905b815481529060010190602001808311613db957829003601f168201915b50505050508152602001600282018054600181600116156101000203166002900480601f016020809104026020016040519081016040528092919081815260200182805460018160011615610100020316600290048015613e785780601f10613e4d57610100808354040283529160200191613e78565b820191906000526020600020905b815481529060010190602001808311613e5b57829003601f168201915b50505050508152602001600382018054600181600116156101000203166002900480601f016020809104026020016040519081016040528092919081815260200182805460018160011615610100020316600290048015613f1a5780601f10613eef57610100808354040283529160200191613f1a565b820191906000526020600020905b815481529060010190602001808311613efd57829003601f168201915b505050505081526020016004820160009054906101000a900473ffffffffffffffffffffffffffffffffffffffff1673ffffffffffffffffffffffffffffffffffffffff1673ffffffffffffffffffffffffffffffffffffffff1681525050905083805190602001208160200151805190602001201415613fa057600192505050613fb4565b508080600101915050613ca9565b50600090505b919050565b606060405190810160405280600073ffffffffffffffffffffffffffffffffffffffff16815260200160608152602001606081525090565b828054600181600116156101000203166002900490600052602060002090601f016020900481019282601f1061403257805160ff1916838001178555614060565b82800160010185558215614060579182015b8281111561405f578251825591602001919060010190614044565b5b50905061406d91906140cd565b5090565b60a060405190810160405280600073ffffffffffffffffffffffffffffffffffffffff168152602001606081526020016060815260200160608152602001600073ffffffffffffffffffffffffffffffffffffffff1681525090565b6140ef91905b808211156140eb5760008160009055506001016140d3565b5090565b90565b60006140fe8235614f28565b905092915050565b600082601f830112151561411957600080fd5b813561412c61412782614e39565b614e0c565b9150808252602083016020830185838301111561414857600080fd5b614153838284614f44565b50505092915050565b60006141688235614f3a565b905092915050565b60006020828403121561418257600080fd5b6000614190848285016140f2565b91505092915050565b6000806000606084860312156141ae57600080fd5b60006141bc868287016140f2565b935050602084013567ffffffffffffffff8111156141d957600080fd5b6141e586828701614106565b925050604084013567ffffffffffffffff81111561420257600080fd5b61420e86828701614106565b9150509250925092565b60006020828403121561422a57600080fd5b600082013567ffffffffffffffff81111561424457600080fd5b61425084828501614106565b91505092915050565b6000806000806080858703121561426f57600080fd5b600085013567ffffffffffffffff81111561428957600080fd5b61429587828801614106565b945050602085013567ffffffffffffffff8111156142b257600080fd5b6142be87828801614106565b935050604085013567ffffffffffffffff8111156142db57600080fd5b6142e787828801614106565b92505060606142f8878288016140f2565b91505092959194509250565b600080600080600060a0868803121561431c57600080fd5b600086013567ffffffffffffffff81111561433657600080fd5b61434288828901614106565b955050602086013567ffffffffffffffff81111561435f57600080fd5b61436b88828901614106565b945050604086013567ffffffffffffffff81111561438857600080fd5b61439488828901614106565b935050606086013567ffffffffffffffff8111156143b157600080fd5b6143bd88828901614106565b92505060806143ce888289016140f2565b9150509295509295909350565b600080600080600060a086880312156143f357600080fd5b600086013567ffffffffffffffff81111561440d57600080fd5b61441988828901614106565b955050602086013567ffffffffffffffff81111561443657600080fd5b61444288828901614106565b945050604086013567ffffffffffffffff81111561445f57600080fd5b61446b88828901614106565b935050606086013567ffffffffffffffff81111561448857600080fd5b61449488828901614106565b925050608086013567ffffffffffffffff8111156144b157600080fd5b6144bd88828901614106565b9150509295509295909350565b6000602082840312156144dc57600080fd5b60006144ea8482850161415c565b91505092915050565b6144fc81614eea565b82525050565b600061450d82614e8c565b8084526020840193508360208202850161452685614e65565b60005b8481101561455f5783830388526145418383516147a3565b925061454c82614ec3565b9150602088019750600181019050614529565b508196508694505050505092915050565b600061457b82614e97565b8084526020840193508360208202850161459485614e72565b60005b848110156145cd5783830388526145af83835161482e565b92506145ba82614ed0565b9150602088019750600181019050614597565b508196508694505050505092915050565b60006145e982614ea2565b8084526020840193508360208202850161460285614e7f565b60005b8481101561463b57838303885261461d8383516148d3565b925061462882614edd565b9150602088019750600181019050614605565b508196508694505050505092915050565b61465581614efc565b82525050565b600061466682614eb8565b80845261467a816020860160208601614f53565b61468381614f86565b602085010191505092915050565b600061469c82614ead565b8084526146b0816020860160208601614f53565b6146b981614f86565b602085010191505092915050565b6000601682527f49442073686f756c64206e6f7420626520656d707479000000000000000000006020830152604082019050919050565b6000601882527f4e616d652073686f756c64206e6f7420626520656d70747900000000000000006020830152604082019050919050565b6000601c82527f557365726e616d652073686f756c64206e6f7420626520656d707479000000006020830152604082019050919050565b6000601382527f506c656173652075706c6f61642066696c6573000000000000000000000000006020830152604082019050919050565b600060a08301600083015184820360008601526147c08282614691565b915050602083015184820360208601526147da8282614691565b915050604083015184820360408601526147f48282614691565b9150506060830151848203606086015261480e8282614691565b915050608083015161482360808601826144f3565b508091505092915050565b600060c083016000830151848203600086015261484b8282614691565b915050602083015184820360208601526148658282614691565b9150506040830151848203604086015261487f8282614691565b915050606083015184820360608601526148998282614691565b91505060808301516148ae60808601826144f3565b5060a083015184820360a08601526148c68282614691565b9150508091505092915050565b600060a0830160008301516148eb60008601826144f3565b50602083015184820360208601526149038282614691565b9150506040830151848203604086015261491d8282614691565b915050606083015184820360608601526149378282614691565b915050608083015161494c60808601826144f3565b508091505092915050565b600060208201905061496c60008301846144f3565b92915050565b600060608201905061498760008301866144f3565b81810360208301526149998185614691565b905081810360408301526149ad8184614691565b9050949350505050565b600060a0820190506149cc60008301886144f3565b81810360208301526149de8187614691565b905081810360408301526149f28186614691565b90508181036060830152614a068185614691565b9050614a1560808301846144f3565b9695505050505050565b60006020820190508181036000830152614a398184614502565b905092915050565b60006020820190508181036000830152614a5b8184614570565b905092915050565b60006020820190508181036000830152614a7d81846145de565b905092915050565b6000602082019050614a9a600083018461464c565b92915050565b60006020820190508181036000830152614aba818461465b565b905092915050565b60006040820190508181036000830152614adc818561465b565b90508181036020830152614af0818461465b565b90509392505050565b60006080820190508181036000830152614b13818761465b565b90508181036020830152614b27818661465b565b90508181036040830152614b3b818561465b565b9050614b4a60608301846144f3565b95945050505050565b60006080820190508181036000830152614b6d818761465b565b90508181036020830152614b81818661465b565b90508181036040830152614b95818561465b565b90508181036060830152614ba9818461465b565b905095945050505050565b600060a0820190508181036000830152614bce818861465b565b90508181036020830152614be2818761465b565b90508181036040830152614bf6818661465b565b90508181036060830152614c0a818561465b565b9050614c1960808301846144f3565b9695505050505050565b600060a0820190508181036000830152614c3d818861465b565b90508181036020830152614c51818761465b565b90508181036040830152614c65818661465b565b90508181036060830152614c79818561465b565b90508181036080830152614c8d818461465b565b90509695505050505050565b600060a0820190508181036000830152614cb38188614691565b90508181036020830152614cc78187614691565b90508181036040830152614cdb8186614691565b90508181036060830152614cef8185614691565b9050614cfe60808301846144f3565b9695505050505050565b600060c0820190508181036000830152614d228189614691565b90508181036020830152614d368188614691565b90508181036040830152614d4a8187614691565b90508181036060830152614d5e8186614691565b9050614d6d60808301856144f3565b81810360a0830152614d7f8184614691565b9050979650505050505050565b60006020820190508181036000830152614da5816146c7565b9050919050565b60006020820190508181036000830152614dc5816146fe565b9050919050565b60006020820190508181036000830152614de581614735565b9050919050565b60006020820190508181036000830152614e058161476c565b9050919050565b6000604051905081810181811067ffffffffffffffff82111715614e2f57600080fd5b8060405250919050565b600067ffffffffffffffff821115614e5057600080fd5b601f19601f8301169050602081019050919050565b6000602082019050919050565b6000602082019050919050565b6000602082019050919050565b600081519050919050565b600081519050919050565b600081519050919050565b600081519050919050565b600081519050919050565b6000602082019050919050565b6000602082019050919050565b6000602082019050919050565b6000614ef582614f08565b9050919050565b60008115159050919050565b600073ffffffffffffffffffffffffffffffffffffffff82169050919050565b6000614f3382614f08565b9050919050565b6000819050919050565b82818337600083830152505050565b60005b83811015614f71578082015181840152602081019050614f56565b83811115614f80576000848401525b50505050565b6000601f19601f830116905091905056fea265627a7a723058203786d9ce69b40fc4be8b61b78c0c5d1bc46b6e8acb1e9ea923e7f32c99c59ee46c6578706572696d656e74616cf50037",
  "source": "// SPDX-License-Identifier: MIT\r\npragma solidity >=0.4.22 <0.9.0;\r\npragma experimental ABIEncoderV2;\r\n\r\n\r\ncontract Hospital_Contract {\r\n\r\n\r\n    // Hospital struct\r\n    struct Hospital {\r\n        //To login into the account\r\n        string username;\r\n        string hospital_name;\r\n        string registraion_number; //to check authenticity\r\n        string departments;\r\n        address hospital_address;\r\n      \r\n        string license_number;\r\n        // Hospital_Contact_Info contact;  //contact info to connect with hospital\r\n    }\r\n\r\n    //creating hospital array to ustore hospitals registered\r\n     mapping(address => Hospital) hospitals;\r\n    \r\n    mapping(address => bool) public isRegistered;\r\n\r\n    address[] public hospital_addresses ; //creating hospital_key array to iterate through it\r\n    Hospital[] public hospital_list;\r\n\r\n    // Defining event to add hospital on blockchain\r\n    event Hospital_Added(\r\n        address indexed hospital_address,\r\n        string username,\r\n        string hospital_name,\r\n        string registration_number,\r\n        string departments,\r\n        string license_number\r\n    );\r\n\r\n    //Adding Hospital\r\n    function Add_Hospital(\r\n        string memory _username,\r\n        string memory _hospital_name,\r\n        string memory _registration_number,\r\n        string memory _departments,\r\n        string memory _license_number\r\n    ) public returns(address) {\r\n        // Required Condition\r\n        require(bytes(_hospital_name).length > 0, \"Name should not be empty\");\r\n        // require(hospital_exist(msg.sender) == false,\"Hospital already exist\");\r\n        \r\n\r\n\r\n\r\n        hospitals[msg.sender] = Hospital({\r\n            username:_username,\r\n            hospital_name: _hospital_name,\r\n            registraion_number: _registration_number,\r\n            departments:_departments,\r\n            license_number: _license_number,\r\n            hospital_address:msg.sender\r\n        });\r\n\r\n        // Adding Hospital on Blockchain\r\n        emit Hospital_Added(\r\n            msg.sender,\r\n            _username,\r\n            _hospital_name,\r\n            _registration_number,\r\n            _departments,\r\n            _license_number\r\n        );\r\n\r\n        isRegistered[msg.sender] =true;\r\n\r\n        // // Adding adrres to array;\r\n        hospital_addresses.push(msg.sender);\r\n\r\n        hospital_list.push(Hospital({\r\n            username:_username,\r\n            hospital_name: _hospital_name,\r\n            registraion_number: _registration_number,\r\n            departments:_departments,\r\n            license_number: _license_number,\r\n            hospital_address:msg.sender\r\n        }));\r\n\r\n        return(msg.sender);\r\n    }\r\n\r\n    // get all hospital address\r\n    function get_hospital_address() external view returns( Hospital[] memory){\r\n        return hospital_list;\r\n    }\r\n\r\n    // get all hospital\r\n    function get_hospital_list()  view public   returns( Hospital[] memory){\r\n        require(hospital_list.length > 0 );\r\n        return hospital_list;\r\n    }\r\n\r\n     // Function to retrieve hospital properties by address\r\n    function getHospital(address hospitalAddress)  view  public returns (string memory, string memory, string memory, string memory) {\r\n        Hospital storage hospital = hospitals[hospitalAddress];\r\n        return (\r\n            hospital.hospital_name,\r\n            hospital.registraion_number,\r\n            hospital.departments,\r\n            hospital.license_number\r\n        );\r\n    }\r\n\r\n\r\n\r\n    // check whether hospital alreadyexist or not\r\n    function hospital_exist(address _hospital_addresses) view  public  returns(bool) {\r\n        if(hospital_addresses.length==0) return true;\r\n        for (uint i = 0; i < hospital_addresses.length; i++) {\r\n            if (hospital_addresses[i] == _hospital_addresses) {\r\n                return false; //hopital key Exist\r\n            }\r\n        }\r\n        return true; //hopital key does not exist\r\n    \r\n    }\r\n\r\n   \r\n\r\n\r\n    // check Hopital key\r\n    function check_hospital_key(\r\n        address _hospital_address\r\n    ) public view returns (bool) {\r\n        \r\n\r\n\r\n        for (uint i = 0; i < hospital_addresses.length; i++) {\r\n            if (hospital_addresses[i] == _hospital_address) {\r\n                return true; //hopital key Exist\r\n            }\r\n        }\r\n        return false; //hopital key does not exist\r\n    }\r\n\r\n    // To check whether departemnt exist or not\r\n    // function check_departments(\r\n    //     string memory _department,\r\n    //     address _hospital_address\r\n    // ) public view returns (bool) {\r\n    //     require(bytes(_department).length > 0, \"Please Enter the department\");\r\n\r\n    //     //  creating an hospital instance\r\n    //     Hospital memory _hospital = hospitals[_hospital_address];\r\n\r\n    //     //  checking whether department exist or not\r\n    //     for (uint i = 0; i < _hospital.departments.length; i++) {\r\n    //         if (\r\n    //             keccak256(bytes(_hospital.departments[i])) ==\r\n    //             keccak256(bytes(_department))\r\n    //         ) {\r\n    //             return true; //department exist\r\n    //         }\r\n    //     }\r\n    //     return false; //department does not exist\r\n    // }\r\n\r\n    // check whether patient exist or not\r\n    function Patients_exist(\r\n        string memory _patient_name\r\n    ) public view returns (bool) {\r\n        //  checking whether patient   exist or not\r\n        for (uint i = 0; i < patients_list.length; i++) {\r\n            Patients memory _patient = patients_list[i];\r\n            if (\r\n                keccak256(bytes(_patient.name)) ==\r\n                keccak256(bytes(_patient_name))\r\n            ) {\r\n                return true; //patient exist\r\n            }\r\n        }\r\n        return false; //patient does not exist\r\n    }\r\n\r\n   \r\n\r\n\r\n\r\n\r\n    // Creation of Block\r\n\r\n    struct Blocks {\r\n        address patient_address;\r\n        string CID_Key;\r\n        string patient_name;\r\n    }\r\n\r\n    mapping(address => Blocks) public blocks;\r\n\r\n    Blocks[] public blocks_list;\r\n\r\n    event CreateBlock(\r\n        address indexed block_address,\r\n        string CID_key,\r\n        string patient_name\r\n\r\n    );\r\n\r\n    function createblock(\r\n        address _patient_address,\r\n        string memory _CID_key,\r\n        string memory _patient_name\r\n    ) public {\r\n      require(bytes(_CID_key).length > 0 , \"Please upload files\");\r\n\r\n      blocks[msg.sender] = Blocks({\r\n        patient_address:_patient_address,\r\n        CID_Key:_CID_key,\r\n        patient_name:_patient_name\r\n\r\n      });\r\n\r\n      emit CreateBlock(\r\n      _patient_address,\r\n      _CID_key,\r\n      _patient_name\r\n      );\r\n\r\n      blocks_list.push(Blocks({\r\n        patient_address:_patient_address,\r\n        CID_Key:_CID_key,\r\n        patient_name:_patient_name\r\n\r\n      }));\r\n    }\r\n\r\n    // Get ipfs hash\r\n    function get_CID_key(address _patient_address) public view returns(string memory){\r\n        for(uint i = 0;i<blocks_list.length;i++){\r\n            Blocks memory _block = blocks_list[i];\r\n            if(_block.patient_address == _patient_address){\r\n                return _block.CID_Key;\r\n            }\r\n        }\r\n\r\n\r\n\r\n    }\r\n\r\n    // Handling Doctor registraion\r\n    struct Doctor {\r\n        string username; // To login into the account\r\n        string name;\r\n        string department; // Eg. clinic, general hospital\r\n        string id; // To check authenticity\r\n        address hospital_address;\r\n        // DoctorContactInfo contact;  // Contact info to connect with hospital\r\n    }\r\n\r\n    mapping(address => Doctor) public doctors;\r\n   \r\n\r\n   address[] public doctor_address;\r\n\r\n    Doctor[] public doctor_list;\r\n    \r\n\r\n    event DoctorAdded(\r\n        address indexed doctorAddress,\r\n        string username,\r\n        string name,\r\n        string department,\r\n        string id,\r\n        address hospital_address\r\n    );\r\n\r\n    function addDoctor(\r\n        string memory _username,\r\n        string memory _name,\r\n        string memory _department,\r\n        string memory _id,\r\n        address  _hospital_address\r\n    ) public {\r\n        require(bytes(_username).length > 0, \"Username should not be empty\");\r\n        require(bytes(_name).length > 0, \"Name should not be empty\");\r\n        require(bytes(_id).length > 0, \"ID should not be empty\");\r\n        // require(\r\n        //     hospital_exist(_hospital_address) == true,\r\n        //     \"Hospital Key does not match to any hospitals\"\r\n        // );\r\n        // require(\r\n        //     check_departments(_department, _hospital_address) == true,\r\n        //     \"Department does not exist\"\r\n        // );\r\n\r\n       \r\n        \r\n\r\n        doctor_list.push( Doctor({\r\n            username: _username,\r\n            name: _name,\r\n            department: _department,\r\n            id: _id,\r\n            hospital_address: _hospital_address\r\n        }));\r\n    \r\n\r\n        emit DoctorAdded(\r\n            msg.sender,\r\n            _username,\r\n            _name,\r\n            _department,\r\n            _id,\r\n            _hospital_address\r\n        );\r\n\r\n        // Adding this doctor in the array\r\n        doctor_address.push(msg.sender);\r\n    }\r\n\r\n    // validate Doctor\r\n    function validate_doctor(address _doctor_address) external view returns(bool ){\r\n        for (uint i = 0; i < doctor_address.length; i++){\r\n            if(doctor_address[i] == _doctor_address){\r\n                return true;\r\n            }\r\n        }\r\n        return false;\r\n        \r\n    }\r\n\r\n    // get all doctor\r\n    function get_all_doctor() view public returns(Doctor[] memory){\r\n        return doctor_list;\r\n    }\r\n\r\n    // Add file hash\r\n    // function addFiles(string memory _CID_key,string memory _name) public{\r\n    //   address  patient_address = getPatientsAddress(_name,msg.sender);\r\n\r\n    //   createblock(patient_address,_CID_key,_name);\r\n\r\n    // }\r\n\r\n    \r\n    struct Patients {\r\n        address patient_address;\r\n        string name;\r\n        string phone_number;\r\n        string alloted_departments;\r\n        address alloted_docotors;\r\n    }\r\n\r\n    mapping(address => Patients) public patients;\r\n\r\n    Patients[] public patients_list;\r\n\r\n    event PatientsAdded(\r\n        address indexed patientAddress,\r\n        string name,\r\n        string phone_number,\r\n        string alloted_departments,\r\n        address alloted_doctors\r\n    );\r\n\r\n    function Add_Patients(\r\n        string memory _name,\r\n        string memory _phone_number,\r\n        string memory _alloted_departments,\r\n        address  _alloted_doctors\r\n    ) public {\r\n        // require(hospital_exist(msg.sender) == true,\"not a hospital\");\r\n        // require(validate_doctor(_alloted_doctors) == true,\"wrong doctor\");\r\n        patients[msg.sender] = Patients({\r\n            patient_address:msg.sender,\r\n            name: _name,\r\n            phone_number: _phone_number,\r\n            alloted_departments: _alloted_departments,\r\n            alloted_docotors: _alloted_doctors\r\n        });\r\n\r\n        emit PatientsAdded(\r\n            msg.sender,\r\n            _name,\r\n            _phone_number,\r\n            _alloted_departments,\r\n            _alloted_doctors\r\n        );\r\n\r\n        patients_list.push(Patients({\r\n            patient_address:msg.sender,\r\n            name: _name,\r\n            phone_number: _phone_number,\r\n            alloted_departments: _alloted_departments,\r\n            alloted_docotors: _alloted_doctors\r\n        }));\r\n    }\r\n\r\n    // get patients address\r\n    function get_patient_address(string memory name)view  public  returns(address){\r\n        for (uint i =0;i<patients_list.length;i++){\r\n            Patients memory _patient = patients_list[i];\r\n            if(keccak256(bytes(_patient.name)) == keccak256(bytes(name))){\r\n                return _patient.patient_address;\r\n            }\r\n\r\n        }\r\n\r\n\r\n    }\r\n\r\n    function get_every_patient() view public returns(Patients[] memory){\r\n        require(patients_list.length > 0 );\r\n        return patients_list;\r\n    }\r\n    \r\n\r\n   \r\n\r\n\r\n\r\n\r\n\r\n\r\n\r\n\r\n\r\n\r\n\r\n\r\n\r\n\r\n\r\n\r\n\r\n\r\n\r\n\r\n\r\n\r\n\r\n\r\n\r\n\r\n\r\n\r\n\r\n\r\n\r\n\r\n\r\n\r\n\r\n\r\n\r\n\r\n\r\n\r\n\r\n\r\n\r\n\r\n\r\n\r\n\r\n\r\n\r\n\r\n\r\n\r\n\r\n\r\n\r\n\r\n\r\n}",
  "sourcePath": "C:\\Users\\aabid\\OneDrive\\Desktop\\MedNexus_011\\src\\blockchain\\contracts\\Hospital.sol",
  "compiler": {
    "name": "solc",
    "version": "0.5.1+commit.c8a2cb62.Emscripten.clang"
  },
  "schemaVersion": "3.4.16",
  "updatedAt": "2024-02-25T13:50:58.084Z",
  "networkType": "ethereum",
  "devdoc": {
    "methods": {}
  },
  "userdoc": {
    "methods": {}
  }
}